{
  "contractName": "Penguin",
  "abi": [
    {
      "inputs": [],
      "stateMutability": "nonpayable",
      "type": "constructor"
    },
    {
      "anonymous": false,
      "inputs": [
        {
          "indexed": true,
          "internalType": "address",
          "name": "owner",
          "type": "address"
        },
        {
          "indexed": true,
          "internalType": "address",
          "name": "approved",
          "type": "address"
        },
        {
          "indexed": true,
          "internalType": "uint256",
          "name": "tokenId",
          "type": "uint256"
        }
      ],
      "name": "Approval",
      "type": "event"
    },
    {
      "anonymous": false,
      "inputs": [
        {
          "indexed": true,
          "internalType": "address",
          "name": "owner",
          "type": "address"
        },
        {
          "indexed": true,
          "internalType": "address",
          "name": "operator",
          "type": "address"
        },
        {
          "indexed": false,
          "internalType": "bool",
          "name": "approved",
          "type": "bool"
        }
      ],
      "name": "ApprovalForAll",
      "type": "event"
    },
    {
      "anonymous": false,
      "inputs": [
        {
          "indexed": true,
          "internalType": "address",
          "name": "previousOwner",
          "type": "address"
        },
        {
          "indexed": true,
          "internalType": "address",
          "name": "newOwner",
          "type": "address"
        }
      ],
      "name": "OwnershipTransferred",
      "type": "event"
    },
    {
      "anonymous": false,
      "inputs": [
        {
          "indexed": true,
          "internalType": "address",
          "name": "from",
          "type": "address"
        },
        {
          "indexed": true,
          "internalType": "address",
          "name": "to",
          "type": "address"
        },
        {
          "indexed": true,
          "internalType": "uint256",
          "name": "tokenId",
          "type": "uint256"
        }
      ],
      "name": "Transfer",
      "type": "event"
    },
    {
      "inputs": [
        {
          "internalType": "address",
          "name": "to",
          "type": "address"
        },
        {
          "internalType": "uint256",
          "name": "tokenId",
          "type": "uint256"
        }
      ],
      "name": "approve",
      "outputs": [],
      "stateMutability": "nonpayable",
      "type": "function"
    },
    {
      "inputs": [
        {
          "internalType": "address",
          "name": "owner",
          "type": "address"
        }
      ],
      "name": "balanceOf",
      "outputs": [
        {
          "internalType": "uint256",
          "name": "",
          "type": "uint256"
        }
      ],
      "stateMutability": "view",
      "type": "function",
      "constant": true
    },
    {
      "inputs": [
        {
          "internalType": "uint256",
          "name": "tokenId",
          "type": "uint256"
        }
      ],
      "name": "getApproved",
      "outputs": [
        {
          "internalType": "address",
          "name": "",
          "type": "address"
        }
      ],
      "stateMutability": "view",
      "type": "function",
      "constant": true
    },
    {
      "inputs": [
        {
          "internalType": "address",
          "name": "owner",
          "type": "address"
        },
        {
          "internalType": "address",
          "name": "operator",
          "type": "address"
        }
      ],
      "name": "isApprovedForAll",
      "outputs": [
        {
          "internalType": "bool",
          "name": "",
          "type": "bool"
        }
      ],
      "stateMutability": "view",
      "type": "function",
      "constant": true
    },
    {
      "inputs": [],
      "name": "name",
      "outputs": [
        {
          "internalType": "string",
          "name": "",
          "type": "string"
        }
      ],
      "stateMutability": "view",
      "type": "function",
      "constant": true
    },
    {
      "inputs": [],
      "name": "owner",
      "outputs": [
        {
          "internalType": "address",
          "name": "",
          "type": "address"
        }
      ],
      "stateMutability": "view",
      "type": "function",
      "constant": true
    },
    {
      "inputs": [
        {
          "internalType": "uint256",
          "name": "tokenId",
          "type": "uint256"
        }
      ],
      "name": "ownerOf",
      "outputs": [
        {
          "internalType": "address",
          "name": "",
          "type": "address"
        }
      ],
      "stateMutability": "view",
      "type": "function",
      "constant": true
    },
    {
      "inputs": [],
      "name": "renounceOwnership",
      "outputs": [],
      "stateMutability": "nonpayable",
      "type": "function"
    },
    {
      "inputs": [
        {
          "internalType": "address",
          "name": "from",
          "type": "address"
        },
        {
          "internalType": "address",
          "name": "to",
          "type": "address"
        },
        {
          "internalType": "uint256",
          "name": "tokenId",
          "type": "uint256"
        }
      ],
      "name": "safeTransferFrom",
      "outputs": [],
      "stateMutability": "nonpayable",
      "type": "function"
    },
    {
      "inputs": [
        {
          "internalType": "address",
          "name": "from",
          "type": "address"
        },
        {
          "internalType": "address",
          "name": "to",
          "type": "address"
        },
        {
          "internalType": "uint256",
          "name": "tokenId",
          "type": "uint256"
        },
        {
          "internalType": "bytes",
          "name": "_data",
          "type": "bytes"
        }
      ],
      "name": "safeTransferFrom",
      "outputs": [],
      "stateMutability": "nonpayable",
      "type": "function"
    },
    {
      "inputs": [
        {
          "internalType": "address",
          "name": "operator",
          "type": "address"
        },
        {
          "internalType": "bool",
          "name": "approved",
          "type": "bool"
        }
      ],
      "name": "setApprovalForAll",
      "outputs": [],
      "stateMutability": "nonpayable",
      "type": "function"
    },
    {
      "inputs": [
        {
          "internalType": "bytes4",
          "name": "interfaceId",
          "type": "bytes4"
        }
      ],
      "name": "supportsInterface",
      "outputs": [
        {
          "internalType": "bool",
          "name": "",
          "type": "bool"
        }
      ],
      "stateMutability": "view",
      "type": "function",
      "constant": true
    },
    {
      "inputs": [],
      "name": "symbol",
      "outputs": [
        {
          "internalType": "string",
          "name": "",
          "type": "string"
        }
      ],
      "stateMutability": "view",
      "type": "function",
      "constant": true
    },
    {
      "inputs": [
        {
          "internalType": "uint256",
          "name": "tokenId",
          "type": "uint256"
        }
      ],
      "name": "tokenURI",
      "outputs": [
        {
          "internalType": "string",
          "name": "",
          "type": "string"
        }
      ],
      "stateMutability": "view",
      "type": "function",
      "constant": true
    },
    {
      "inputs": [
        {
          "internalType": "address",
          "name": "from",
          "type": "address"
        },
        {
          "internalType": "address",
          "name": "to",
          "type": "address"
        },
        {
          "internalType": "uint256",
          "name": "tokenId",
          "type": "uint256"
        }
      ],
      "name": "transferFrom",
      "outputs": [],
      "stateMutability": "nonpayable",
      "type": "function"
    },
    {
      "inputs": [
        {
          "internalType": "address",
          "name": "newOwner",
          "type": "address"
        }
      ],
      "name": "transferOwnership",
      "outputs": [],
      "stateMutability": "nonpayable",
      "type": "function"
    },
    {
      "inputs": [
        {
          "internalType": "address",
          "name": "receiver",
          "type": "address"
        },
        {
          "internalType": "uint256",
          "name": "_amt",
          "type": "uint256"
        }
      ],
      "name": "mintNft",
      "outputs": [
        {
          "internalType": "uint256",
          "name": "",
          "type": "uint256"
        }
      ],
      "stateMutability": "payable",
      "type": "function",
      "payable": true
    }
  ],
  "bytecode": "0x60806040523480156200001157600080fd5b506040518060400160405280600781526020017f70656e6775696e000000000000000000000000000000000000000000000000008152506040518060400160405280600381526020017f70656e0000000000000000000000000000000000000000000000000000000000815250816000908051906020019062000096929190620001b8565b508060019080519060200190620000af929190620001b8565b505050620000e4620000cf620000ea640100000000026401000000009004565b620000f2640100000000026401000000009004565b620002cd565b600033905090565b6000600660009054906101000a900473ffffffffffffffffffffffffffffffffffffffff16905081600660006101000a81548173ffffffffffffffffffffffffffffffffffffffff021916908373ffffffffffffffffffffffffffffffffffffffff1602179055508173ffffffffffffffffffffffffffffffffffffffff168173ffffffffffffffffffffffffffffffffffffffff167f8be0079c531659141344cd1fd0a4f28419497f9722a3daafe3b4186f6b6457e060405160405180910390a35050565b828054620001c69062000268565b90600052602060002090601f016020900481019282620001ea576000855562000236565b82601f106200020557805160ff191683800117855562000236565b8280016001018555821562000236579182015b828111156200023557825182559160200191906001019062000218565b5b50905062000245919062000249565b5090565b5b80821115620002645760008160009055506001016200024a565b5090565b600060028204905060018216806200028157607f821691505b602082108114156200029857620002976200029e565b5b50919050565b7f4e487b7100000000000000000000000000000000000000000000000000000000600052602260045260246000fd5b612d1980620002dd6000396000f3fe60806040526004361061011b576000357c010000000000000000000000000000000000000000000000000000000090048063715018a6116100b2578063b88d4fde11610081578063b88d4fde14610350578063c87b56dd14610379578063d1194e2b146103b6578063e985e9c5146103e6578063f2fde38b146104235761011b565b8063715018a6146102ba5780638da5cb5b146102d157806395d89b41146102fc578063a22cb465146103275761011b565b806323b872dd116100ee57806323b872dd146101ee57806342842e0e146102175780636352211e1461024057806370a082311461027d5761011b565b806301ffc9a71461012057806306fdde031461015d578063081812fc14610188578063095ea7b3146101c5575b600080fd5b34801561012c57600080fd5b5061014760048036038101906101429190611db1565b61044c565b60405161015491906121da565b60405180910390f35b34801561016957600080fd5b5061017261052e565b60405161017f91906121f5565b60405180910390f35b34801561019457600080fd5b506101af60048036038101906101aa9190611e03565b6105c0565b6040516101bc9190612173565b60405180910390f35b3480156101d157600080fd5b506101ec60048036038101906101e79190611d75565b610645565b005b3480156101fa57600080fd5b5061021560048036038101906102109190611c6f565b61075d565b005b34801561022357600080fd5b5061023e60048036038101906102399190611c6f565b6107bd565b005b34801561024c57600080fd5b5061026760048036038101906102629190611e03565b6107dd565b6040516102749190612173565b60405180910390f35b34801561028957600080fd5b506102a4600480360381019061029f9190611c0a565b61088f565b6040516102b19190612437565b60405180910390f35b3480156102c657600080fd5b506102cf610947565b005b3480156102dd57600080fd5b506102e66109cf565b6040516102f39190612173565b60405180910390f35b34801561030857600080fd5b506103116109f9565b60405161031e91906121f5565b60405180910390f35b34801561033357600080fd5b5061034e60048036038101906103499190611d39565b610a8b565b005b34801561035c57600080fd5b5061037760048036038101906103729190611cbe565b610c0c565b005b34801561038557600080fd5b506103a0600480360381019061039b9190611e03565b610c6e565b6040516103ad91906121f5565b60405180910390f35b6103d060048036038101906103cb9190611d75565b610d15565b6040516103dd9190612437565b60405180910390f35b3480156103f257600080fd5b5061040d60048036038101906104089190611c33565b610d85565b60405161041a91906121da565b60405180910390f35b34801561042f57600080fd5b5061044a60048036038101906104459190611c0a565b610e19565b005b60007f80ac58cd000000000000000000000000000000000000000000000000000000007bffffffffffffffffffffffffffffffffffffffffffffffffffffffff1916827bffffffffffffffffffffffffffffffffffffffffffffffffffffffff1916148061051757507f5b5e139f000000000000000000000000000000000000000000000000000000007bffffffffffffffffffffffffffffffffffffffffffffffffffffffff1916827bffffffffffffffffffffffffffffffffffffffffffffffffffffffff1916145b80610527575061052682610f11565b5b9050919050565b60606000805461053d9061265c565b80601f01602080910402602001604051908101604052809291908181526020018280546105699061265c565b80156105b65780601f1061058b576101008083540402835291602001916105b6565b820191906000526020600020905b81548152906001019060200180831161059957829003601f168201915b5050505050905090565b60006105cb82610f7b565b61060a576040517f08c379a000000000000000000000000000000000000000000000000000000000815260040161060190612377565b60405180910390fd5b6004600083815260200190815260200160002060009054906101000a900473ffffffffffffffffffffffffffffffffffffffff169050919050565b6000610650826107dd565b90508073ffffffffffffffffffffffffffffffffffffffff168373ffffffffffffffffffffffffffffffffffffffff1614156106c1576040517f08c379a00000000000000000000000000000000000000000000000000000000081526004016106b8906123f7565b60405180910390fd5b8073ffffffffffffffffffffffffffffffffffffffff166106e0610fe7565b73ffffffffffffffffffffffffffffffffffffffff16148061070f575061070e81610709610fe7565b610d85565b5b61074e576040517f08c379a0000000000000000000000000000000000000000000000000000000008152600401610745906122f7565b60405180910390fd5b6107588383610fef565b505050565b61076e610768610fe7565b826110a8565b6107ad576040517f08c379a00000000000000000000000000000000000000000000000000000000081526004016107a490612417565b60405180910390fd5b6107b8838383611186565b505050565b6107d883838360405180602001604052806000815250610c0c565b505050565b6000806002600084815260200190815260200160002060009054906101000a900473ffffffffffffffffffffffffffffffffffffffff169050600073ffffffffffffffffffffffffffffffffffffffff168173ffffffffffffffffffffffffffffffffffffffff161415610886576040517f08c379a000000000000000000000000000000000000000000000000000000000815260040161087d90612337565b60405180910390fd5b80915050919050565b60008073ffffffffffffffffffffffffffffffffffffffff168273ffffffffffffffffffffffffffffffffffffffff161415610900576040517f08c379a00000000000000000000000000000000000000000000000000000000081526004016108f790612317565b60405180910390fd5b600360008373ffffffffffffffffffffffffffffffffffffffff1673ffffffffffffffffffffffffffffffffffffffff168152602001908152602001600020549050919050565b61094f610fe7565b73ffffffffffffffffffffffffffffffffffffffff1661096d6109cf565b73ffffffffffffffffffffffffffffffffffffffff16146109c3576040517f08c379a00000000000000000000000000000000000000000000000000000000081526004016109ba90612397565b60405180910390fd5b6109cd60006113e2565b565b6000600660009054906101000a900473ffffffffffffffffffffffffffffffffffffffff16905090565b606060018054610a089061265c565b80601f0160208091040260200160405190810160405280929190818152602001828054610a349061265c565b8015610a815780601f10610a5657610100808354040283529160200191610a81565b820191906000526020600020905b815481529060010190602001808311610a6457829003601f168201915b5050505050905090565b610a93610fe7565b73ffffffffffffffffffffffffffffffffffffffff168273ffffffffffffffffffffffffffffffffffffffff161415610b01576040517f08c379a0000000000000000000000000000000000000000000000000000000008152600401610af8906122b7565b60405180910390fd5b8060056000610b0e610fe7565b73ffffffffffffffffffffffffffffffffffffffff1673ffffffffffffffffffffffffffffffffffffffff16815260200190815260200160002060008473ffffffffffffffffffffffffffffffffffffffff1673ffffffffffffffffffffffffffffffffffffffff16815260200190815260200160002060006101000a81548160ff0219169083151502179055508173ffffffffffffffffffffffffffffffffffffffff16610bbb610fe7565b73ffffffffffffffffffffffffffffffffffffffff167f17307eab39ab6107e8899845ad3d59bd9653f200f220920489ca2b5937696c3183604051610c0091906121da565b60405180910390a35050565b610c1d610c17610fe7565b836110a8565b610c5c576040517f08c379a0000000000000000000000000000000000000000000000000000000008152600401610c5390612417565b60405180910390fd5b610c68848484846114a8565b50505050565b6060610c7982610f7b565b610cb8576040517f08c379a0000000000000000000000000000000000000000000000000000000008152600401610caf906123d7565b60405180910390fd5b6000610cc2611504565b90506000815111610ce25760405180602001604052806000815250610d0d565b80610cec8461151b565b604051602001610cfd92919061214f565b6040516020818303038152906040525b915050919050565b6000610d2160076116e7565b813414610d63576040517f08c379a0000000000000000000000000000000000000000000000000000000008152600401610d5a90612277565b60405180910390fd5b6000610d6f60076116fd565b9050610d7b848261170b565b8091505092915050565b6000600560008473ffffffffffffffffffffffffffffffffffffffff1673ffffffffffffffffffffffffffffffffffffffff16815260200190815260200160002060008373ffffffffffffffffffffffffffffffffffffffff1673ffffffffffffffffffffffffffffffffffffffff16815260200190815260200160002060009054906101000a900460ff16905092915050565b610e21610fe7565b73ffffffffffffffffffffffffffffffffffffffff16610e3f6109cf565b73ffffffffffffffffffffffffffffffffffffffff1614610e95576040517f08c379a0000000000000000000000000000000000000000000000000000000008152600401610e8c90612397565b60405180910390fd5b600073ffffffffffffffffffffffffffffffffffffffff168173ffffffffffffffffffffffffffffffffffffffff161415610f05576040517f08c379a0000000000000000000000000000000000000000000000000000000008152600401610efc90612237565b60405180910390fd5b610f0e816113e2565b50565b60007f01ffc9a7000000000000000000000000000000000000000000000000000000007bffffffffffffffffffffffffffffffffffffffffffffffffffffffff1916827bffffffffffffffffffffffffffffffffffffffffffffffffffffffff1916149050919050565b60008073ffffffffffffffffffffffffffffffffffffffff166002600084815260200190815260200160002060009054906101000a900473ffffffffffffffffffffffffffffffffffffffff1673ffffffffffffffffffffffffffffffffffffffff1614159050919050565b600033905090565b816004600083815260200190815260200160002060006101000a81548173ffffffffffffffffffffffffffffffffffffffff021916908373ffffffffffffffffffffffffffffffffffffffff160217905550808273ffffffffffffffffffffffffffffffffffffffff16611062836107dd565b73ffffffffffffffffffffffffffffffffffffffff167f8c5be1e5ebec7d5bd14f71427d1e84f3dd0314c0f7b2291e5b200ac8c7c3b92560405160405180910390a45050565b60006110b382610f7b565b6110f2576040517f08c379a00000000000000000000000000000000000000000000000000000000081526004016110e9906122d7565b60405180910390fd5b60006110fd836107dd565b90508073ffffffffffffffffffffffffffffffffffffffff168473ffffffffffffffffffffffffffffffffffffffff16148061116c57508373ffffffffffffffffffffffffffffffffffffffff16611154846105c0565b73ffffffffffffffffffffffffffffffffffffffff16145b8061117d575061117c8185610d85565b5b91505092915050565b8273ffffffffffffffffffffffffffffffffffffffff166111a6826107dd565b73ffffffffffffffffffffffffffffffffffffffff16146111fc576040517f08c379a00000000000000000000000000000000000000000000000000000000081526004016111f3906123b7565b60405180910390fd5b600073ffffffffffffffffffffffffffffffffffffffff168273ffffffffffffffffffffffffffffffffffffffff16141561126c576040517f08c379a000000000000000000000000000000000000000000000000000000000815260040161126390612297565b60405180910390fd5b611277838383611729565b611282600082610fef565b6001600360008573ffffffffffffffffffffffffffffffffffffffff1673ffffffffffffffffffffffffffffffffffffffff16815260200190815260200160002060008282546112d29190612572565b925050819055506001600360008473ffffffffffffffffffffffffffffffffffffffff1673ffffffffffffffffffffffffffffffffffffffff168152602001908152602001600020600082825461132991906124eb565b92505081905550816002600083815260200190815260200160002060006101000a81548173ffffffffffffffffffffffffffffffffffffffff021916908373ffffffffffffffffffffffffffffffffffffffff160217905550808273ffffffffffffffffffffffffffffffffffffffff168473ffffffffffffffffffffffffffffffffffffffff167fddf252ad1be2c89b69c2b068fc378daa952ba7f163c4a11628f55a4df523b3ef60405160405180910390a4505050565b6000600660009054906101000a900473ffffffffffffffffffffffffffffffffffffffff16905081600660006101000a81548173ffffffffffffffffffffffffffffffffffffffff021916908373ffffffffffffffffffffffffffffffffffffffff1602179055508173ffffffffffffffffffffffffffffffffffffffff168173ffffffffffffffffffffffffffffffffffffffff167f8be0079c531659141344cd1fd0a4f28419497f9722a3daafe3b4186f6b6457e060405160405180910390a35050565b6114b3848484611186565b6114bf8484848461172e565b6114fe576040517f08c379a00000000000000000000000000000000000000000000000000000000081526004016114f590612217565b60405180910390fd5b50505050565b606060405180602001604052806000815250905090565b60606000821415611563576040518060400160405280600181526020017f300000000000000000000000000000000000000000000000000000000000000081525090506116e2565b600082905060005b6000821461159557808061157e906126bf565b915050600a8261158e9190612541565b915061156b565b60008167ffffffffffffffff8111156115d7577f4e487b7100000000000000000000000000000000000000000000000000000000600052604160045260246000fd5b6040519080825280601f01601f1916602001820160405280156116095781602001600182028036833780820191505090505b5090505b600085146116db576001826116229190612572565b9150600a856116319190612708565b603061163d91906124eb565b7f010000000000000000000000000000000000000000000000000000000000000002818381518110611698577f4e487b7100000000000000000000000000000000000000000000000000000000600052603260045260246000fd5b60200101907effffffffffffffffffffffffffffffffffffffffffffffffffffffffffffff1916908160001a905350600a856116d49190612541565b945061160d565b8093505050505b919050565b6001816000016000828254019250508190555050565b600081600001549050919050565b6117258282604051806020016040528060008152506118fd565b5050565b505050565b600061174f8473ffffffffffffffffffffffffffffffffffffffff16611958565b156118f0578373ffffffffffffffffffffffffffffffffffffffff1663150b7a02611778610fe7565b8786866040518563ffffffff167c01000000000000000000000000000000000000000000000000000000000281526004016117b6949392919061218e565b602060405180830381600087803b1580156117d057600080fd5b505af192505050801561180157506040513d601f19601f820116820180604052508101906117fe9190611dda565b60015b611884573d8060008114611831576040519150601f19603f3d011682016040523d82523d6000602084013e611836565b606091505b5060008151141561187c576040517f08c379a000000000000000000000000000000000000000000000000000000000815260040161187390612217565b60405180910390fd5b805181602001fd5b63150b7a027c0100000000000000000000000000000000000000000000000000000000027bffffffffffffffffffffffffffffffffffffffffffffffffffffffff1916817bffffffffffffffffffffffffffffffffffffffffffffffffffffffff1916149150506118f5565b600190505b949350505050565b611907838361196b565b611914600084848461172e565b611953576040517f08c379a000000000000000000000000000000000000000000000000000000000815260040161194a90612217565b60405180910390fd5b505050565b600080823b905060008111915050919050565b600073ffffffffffffffffffffffffffffffffffffffff168273ffffffffffffffffffffffffffffffffffffffff1614156119db576040517f08c379a00000000000000000000000000000000000000000000000000000000081526004016119d290612357565b60405180910390fd5b6119e481610f7b565b15611a24576040517f08c379a0000000000000000000000000000000000000000000000000000000008152600401611a1b90612257565b60405180910390fd5b611a3060008383611729565b6001600360008473ffffffffffffffffffffffffffffffffffffffff1673ffffffffffffffffffffffffffffffffffffffff1681526020019081526020016000206000828254611a8091906124eb565b92505081905550816002600083815260200190815260200160002060006101000a81548173ffffffffffffffffffffffffffffffffffffffff021916908373ffffffffffffffffffffffffffffffffffffffff160217905550808273ffffffffffffffffffffffffffffffffffffffff16600073ffffffffffffffffffffffffffffffffffffffff167fddf252ad1be2c89b69c2b068fc378daa952ba7f163c4a11628f55a4df523b3ef60405160405180910390a45050565b6000611b4c611b4784612477565b612452565b905082815260208101848484011115611b6457600080fd5b611b6f84828561261a565b509392505050565b600081359050611b8681612c87565b92915050565b600081359050611b9b81612c9e565b92915050565b600081359050611bb081612cb5565b92915050565b600081519050611bc581612cb5565b92915050565b600082601f830112611bdc57600080fd5b8135611bec848260208601611b39565b91505092915050565b600081359050611c0481612ccc565b92915050565b600060208284031215611c1c57600080fd5b6000611c2a84828501611b77565b91505092915050565b60008060408385031215611c4657600080fd5b6000611c5485828601611b77565b9250506020611c6585828601611b77565b9150509250929050565b600080600060608486031215611c8457600080fd5b6000611c9286828701611b77565b9350506020611ca386828701611b77565b9250506040611cb486828701611bf5565b9150509250925092565b60008060008060808587031215611cd457600080fd5b6000611ce287828801611b77565b9450506020611cf387828801611b77565b9350506040611d0487828801611bf5565b925050606085013567ffffffffffffffff811115611d2157600080fd5b611d2d87828801611bcb565b91505092959194509250565b60008060408385031215611d4c57600080fd5b6000611d5a85828601611b77565b9250506020611d6b85828601611b8c565b9150509250929050565b60008060408385031215611d8857600080fd5b6000611d9685828601611b77565b9250506020611da785828601611bf5565b9150509250929050565b600060208284031215611dc357600080fd5b6000611dd184828501611ba1565b91505092915050565b600060208284031215611dec57600080fd5b6000611dfa84828501611bb6565b91505092915050565b600060208284031215611e1557600080fd5b6000611e2384828501611bf5565b91505092915050565b611e35816125a6565b82525050565b611e44816125b8565b82525050565b6000611e55826124a8565b611e5f81856124be565b9350611e6f818560208601612629565b611e78816127f5565b840191505092915050565b6000611e8e826124b3565b611e9881856124cf565b9350611ea8818560208601612629565b611eb1816127f5565b840191505092915050565b6000611ec7826124b3565b611ed181856124e0565b9350611ee1818560208601612629565b80840191505092915050565b6000611efa6032836124cf565b9150611f0582612806565b604082019050919050565b6000611f1d6026836124cf565b9150611f2882612855565b604082019050919050565b6000611f40601c836124cf565b9150611f4b826128a4565b602082019050919050565b6000611f63600d836124cf565b9150611f6e826128cd565b602082019050919050565b6000611f866024836124cf565b9150611f91826128f6565b604082019050919050565b6000611fa96019836124cf565b9150611fb482612945565b602082019050919050565b6000611fcc602c836124cf565b9150611fd78261296e565b604082019050919050565b6000611fef6038836124cf565b9150611ffa826129bd565b604082019050919050565b6000612012602a836124cf565b915061201d82612a0c565b604082019050919050565b60006120356029836124cf565b915061204082612a5b565b604082019050919050565b60006120586020836124cf565b915061206382612aaa565b602082019050919050565b600061207b602c836124cf565b915061208682612ad3565b604082019050919050565b600061209e6020836124cf565b91506120a982612b22565b602082019050919050565b60006120c16029836124cf565b91506120cc82612b4b565b604082019050919050565b60006120e4602f836124cf565b91506120ef82612b9a565b604082019050919050565b60006121076021836124cf565b915061211282612be9565b604082019050919050565b600061212a6031836124cf565b915061213582612c38565b604082019050919050565b61214981612610565b82525050565b600061215b8285611ebc565b91506121678284611ebc565b91508190509392505050565b60006020820190506121886000830184611e2c565b92915050565b60006080820190506121a36000830187611e2c565b6121b06020830186611e2c565b6121bd6040830185612140565b81810360608301526121cf8184611e4a565b905095945050505050565b60006020820190506121ef6000830184611e3b565b92915050565b6000602082019050818103600083015261220f8184611e83565b905092915050565b6000602082019050818103600083015261223081611eed565b9050919050565b6000602082019050818103600083015261225081611f10565b9050919050565b6000602082019050818103600083015261227081611f33565b9050919050565b6000602082019050818103600083015261229081611f56565b9050919050565b600060208201905081810360008301526122b081611f79565b9050919050565b600060208201905081810360008301526122d081611f9c565b9050919050565b600060208201905081810360008301526122f081611fbf565b9050919050565b6000602082019050818103600083015261231081611fe2565b9050919050565b6000602082019050818103600083015261233081612005565b9050919050565b6000602082019050818103600083015261235081612028565b9050919050565b600060208201905081810360008301526123708161204b565b9050919050565b600060208201905081810360008301526123908161206e565b9050919050565b600060208201905081810360008301526123b081612091565b9050919050565b600060208201905081810360008301526123d0816120b4565b9050919050565b600060208201905081810360008301526123f0816120d7565b9050919050565b60006020820190508181036000830152612410816120fa565b9050919050565b600060208201905081810360008301526124308161211d565b9050919050565b600060208201905061244c6000830184612140565b92915050565b600061245c61246d565b9050612468828261268e565b919050565b6000604051905090565b600067ffffffffffffffff821115612492576124916127c6565b5b61249b826127f5565b9050602081019050919050565b600081519050919050565b600081519050919050565b600082825260208201905092915050565b600082825260208201905092915050565b600081905092915050565b60006124f682612610565b915061250183612610565b9250827fffffffffffffffffffffffffffffffffffffffffffffffffffffffffffffffff0382111561253657612535612739565b5b828201905092915050565b600061254c82612610565b915061255783612610565b92508261256757612566612768565b5b828204905092915050565b600061257d82612610565b915061258883612610565b92508282101561259b5761259a612739565b5b828203905092915050565b60006125b1826125f0565b9050919050565b60008115159050919050565b60007fffffffff0000000000000000000000000000000000000000000000000000000082169050919050565b600073ffffffffffffffffffffffffffffffffffffffff82169050919050565b6000819050919050565b82818337600083830152505050565b60005b8381101561264757808201518184015260208101905061262c565b83811115612656576000848401525b50505050565b6000600282049050600182168061267457607f821691505b6020821081141561268857612687612797565b5b50919050565b612697826127f5565b810181811067ffffffffffffffff821117156126b6576126b56127c6565b5b80604052505050565b60006126ca82612610565b91507fffffffffffffffffffffffffffffffffffffffffffffffffffffffffffffffff8214156126fd576126fc612739565b5b600182019050919050565b600061271382612610565b915061271e83612610565b92508261272e5761272d612768565b5b828206905092915050565b7f4e487b7100000000000000000000000000000000000000000000000000000000600052601160045260246000fd5b7f4e487b7100000000000000000000000000000000000000000000000000000000600052601260045260246000fd5b7f4e487b7100000000000000000000000000000000000000000000000000000000600052602260045260246000fd5b7f4e487b7100000000000000000000000000000000000000000000000000000000600052604160045260246000fd5b6000601f19601f8301169050919050565b7f4552433732313a207472616e7366657220746f206e6f6e20455243373231526560008201527f63656976657220696d706c656d656e7465720000000000000000000000000000602082015250565b7f4f776e61626c653a206e6577206f776e657220697320746865207a65726f206160008201527f6464726573730000000000000000000000000000000000000000000000000000602082015250565b7f4552433732313a20746f6b656e20616c7265616479206d696e74656400000000600082015250565b7f696e76616c69642076616c756500000000000000000000000000000000000000600082015250565b7f4552433732313a207472616e7366657220746f20746865207a65726f2061646460008201527f7265737300000000000000000000000000000000000000000000000000000000602082015250565b7f4552433732313a20617070726f766520746f2063616c6c657200000000000000600082015250565b7f4552433732313a206f70657261746f7220717565727920666f72206e6f6e657860008201527f697374656e7420746f6b656e0000000000000000000000000000000000000000602082015250565b7f4552433732313a20617070726f76652063616c6c6572206973206e6f74206f7760008201527f6e6572206e6f7220617070726f76656420666f7220616c6c0000000000000000602082015250565b7f4552433732313a2062616c616e636520717565727920666f7220746865207a6560008201527f726f206164647265737300000000000000000000000000000000000000000000602082015250565b7f4552433732313a206f776e657220717565727920666f72206e6f6e657869737460008201527f656e7420746f6b656e0000000000000000000000000000000000000000000000602082015250565b7f4552433732313a206d696e7420746f20746865207a65726f2061646472657373600082015250565b7f4552433732313a20617070726f76656420717565727920666f72206e6f6e657860008201527f697374656e7420746f6b656e0000000000000000000000000000000000000000602082015250565b7f4f776e61626c653a2063616c6c6572206973206e6f7420746865206f776e6572600082015250565b7f4552433732313a207472616e73666572206f6620746f6b656e2074686174206960008201527f73206e6f74206f776e0000000000000000000000000000000000000000000000602082015250565b7f4552433732314d657461646174613a2055524920717565727920666f72206e6f60008201527f6e6578697374656e7420746f6b656e0000000000000000000000000000000000602082015250565b7f4552433732313a20617070726f76616c20746f2063757272656e74206f776e6560008201527f7200000000000000000000000000000000000000000000000000000000000000602082015250565b7f4552433732313a207472616e736665722063616c6c6572206973206e6f74206f60008201527f776e6572206e6f7220617070726f766564000000000000000000000000000000602082015250565b612c90816125a6565b8114612c9b57600080fd5b50565b612ca7816125b8565b8114612cb257600080fd5b50565b612cbe816125c4565b8114612cc957600080fd5b50565b612cd581612610565b8114612ce057600080fd5b5056fea26469706673582212207d58db5d6e34ccf3c5a85770c5663fa753f694f62af6cad27cd16648440bd3aa64736f6c63430008030033",
  "immutableReferences": {},
  "source": "// SPDX-License-Identifier: MIT\r\npragma solidity ^0.8.0;\r\n\r\nimport \"@openzeppelin/contracts/token/ERC721/ERC721.sol\";\r\nimport \"@openzeppelin/contracts/access/Ownable.sol\";\r\nimport \"@openzeppelin/contracts/utils/Counters.sol\";\r\n\r\ncontract Penguin is ERC721, Ownable {\r\n    using Counters for Counters.Counter;\r\n    Counters.Counter private _tokenIds;\r\n\r\n    constructor() ERC721(\"penguin\", \"pen\") {}\r\n\r\n    function mintNft(address receiver, uint256 _amt)\r\n        external\r\n        payable\r\n        returns (uint256)\r\n    {\r\n        _tokenIds.increment();\r\n        // check that the values match!\r\n        require(msg.value == _amt, \"invalid value\");\r\n\r\n        //! also check that the address and sender match : later\r\n\r\n        uint256 newNftTokenId = _tokenIds.current();\r\n        _safeMint(receiver, newNftTokenId);\r\n\r\n        return newNftTokenId;\r\n    }\r\n}\r\n",
  "sourcePath": "C:\\Users\\mayor\\Downloads\\woli\\penguin-metamask\\src\\eth\\contracts\\Penguin.sol",
  "compiler": {
    "name": "solc",
    "version": "0.8.3+commit.8d00100c.Emscripten.clang"
  },
  "schemaVersion": "3.4.3",
  "updatedAt": "2021-08-22T16:47:09.731Z",
  "networkType": "ethereum",
  "devdoc": {
    "kind": "dev",
    "methods": {
      "approve(address,uint256)": {
        "details": "See {IERC721-approve}."
      },
      "balanceOf(address)": {
        "details": "See {IERC721-balanceOf}."
      },
      "getApproved(uint256)": {
        "details": "See {IERC721-getApproved}."
      },
      "isApprovedForAll(address,address)": {
        "details": "See {IERC721-isApprovedForAll}."
      },
      "name()": {
        "details": "See {IERC721Metadata-name}."
      },
      "owner()": {
        "details": "Returns the address of the current owner."
      },
      "ownerOf(uint256)": {
        "details": "See {IERC721-ownerOf}."
      },
      "renounceOwnership()": {
        "details": "Leaves the contract without owner. It will not be possible to call `onlyOwner` functions anymore. Can only be called by the current owner. NOTE: Renouncing ownership will leave the contract without an owner, thereby removing any functionality that is only available to the owner."
      },
      "safeTransferFrom(address,address,uint256)": {
        "details": "See {IERC721-safeTransferFrom}."
      },
      "safeTransferFrom(address,address,uint256,bytes)": {
        "details": "See {IERC721-safeTransferFrom}."
      },
      "setApprovalForAll(address,bool)": {
        "details": "See {IERC721-setApprovalForAll}."
      },
      "supportsInterface(bytes4)": {
        "details": "See {IERC165-supportsInterface}."
      },
      "symbol()": {
        "details": "See {IERC721Metadata-symbol}."
      },
      "tokenURI(uint256)": {
        "details": "See {IERC721Metadata-tokenURI}."
      },
      "transferFrom(address,address,uint256)": {
        "details": "See {IERC721-transferFrom}."
      },
      "transferOwnership(address)": {
        "details": "Transfers ownership of the contract to a new account (`newOwner`). Can only be called by the current owner."
      }
    },
    "version": 1
  },
  "userdoc": {
    "kind": "user",
    "methods": {},
    "version": 1
  }
}